:02000000762860
:1000060083120313FB01FA01F9018030F800F10CA9
:10001600F00C031C17287408F90775080318750FE8
:10002600FA070318FB0A0310F01F1F287408FA07C3
:1000360075080318750FFB07FB0CFA0CF90CF80C86
:10004600031C0A287B08F3007A08F2007908F100FD
:060056007808F00008002C
:0C005C008312031395011712971208007D
:10006800831603130711831212150C309704080026
:10007800831603131208013EF000F1010318F10A78
:1000880083122408F400F50103200630F2007008FA
:10009800F4007108F500720803195728F50CF40CE0
:1000A800F513FF3E50280430F1007408F000710881
:1000B80003196228F00D7010FF3E5C28303070057F
:1000C800F3007408F0007508F100F10CF00CF1135E
:1000D800F10CF00CF113700895000F3097057308B8
:0400E8009704080071
:1000EC0083120313A201A3018316860183128601D6
:1000FC0006148610121492106330831692002E2070
:10010C0034202208A4003C20081CBF288030230681
:10011C00F00080307002031D9528FA30220203187B
:10012C00BF280230FB000430FC00BA30FD00FD0B90
:10013C009D28FC0B9D28FB0B9D280000081CBF284C
:10014C0080302306F00080307002031DAF28FA3097
:10015C0022020318BF280A302207F00023080318D4
:10016C00013EF1007008A2007108A3007008A40001
:10017C003C20881CF5288030F0008030230670026B
:10018C00031DCA282208003C0318F5280230FB0086
:10019C000430FC00BA30FD00FD0BD228FC0BD22839
:1001AC00FB0BD2280000881CF5288030F000803032
:1001BC0023067002031DE4282208003C0318F528CE
:1001CC000A302202F0000030031C013E2302F10031
:1001DC007008A2007108A3007008A4003C208A28B3
:0201EC00F628F3
:02400E004A2F37
:00000001FF
