:020000000328D3
:10000600C03083120313A200F930A300A430A40069
:10001600B030A5009930A6009230A7008230A80023
:10002600F830A9008030AA009030AB00AC01AD01D9
:1000360083168601FF308800FF30831286002C0865
:10004600223E8400000886000230FB000430FC00DB
:10005600BA30FD00FD0B2D28FC0B2D28FB0B2D289F
:10006600000008186A288030F00080302D067002E3
:10007600031D3F282C08093C031C6A280230FB009C
:100086000430FC00BA30FD00FD0B4728FC0B472866
:10009600FB0B4728000008186A288030F0008030E3
:1000A6002D067002031D59282C08093C031C6A28DA
:1000B60000302D06031D612809302C06031D672814
:1000C600FF30AC00FF30AD00AC0A0319AD0A88184A
:1000D600A1288030F00080302D067002031D75289F
:1000E6002C08093C031CA1280230FB000430FC004C
:1000F600BA30FD00FD0B7D28FC0B7D28FB0B7D280F
:1001060000008818A1288030F00080302D0670028B
:10011600031D8F282C08093C031CA12800302D063E
:10012600031D972800302C06031D9D280A30AC00BD
:100136000030AD000130AC02031CAD032228A2281A
:02400E004A2F37
:00000001FF
