:020000001F29B6
:0E000600213083120313FD00FD0B07280800B4
:100014000F3083120313FC004730FD00FD0B102842
:0A002400FC0B10280000000008008B
:06002E00000000000800C4
:1000340083160313A81B21288312861223288312F4
:1000440086168316281B2928831206122B2883124E
:1000540006168316A81A31288312861133288312B0
:1000640086158316281A3928831206113B28831211
:1000740006156C183F28061440280610861417200D
:1000840086108316A8194928831286124B288312D6
:1000940086168316281951288312061253288312B0
:1000A40006168316A8185928831286115B28831212
:1000B4008615831628186128831206116328831273
:1000C40006156C186728061468280610861417206D
:0E00D40086106C1C6F280A207028032008007C
:0E00E200831203136E088A006D088200080066
:1000F000831203136C1083162708A8001A206C14AF
:020100000800F5
:100102008316031386100610061186110612861234
:1001120083128610061086120612861106110A2014
:100122000A200A20861506158614172086100A2032
:100132008614172086100A208614172086100A209B
:1001420006118614172086100A208614172086109E
:10015200861186168614172086100A208612061526
:1001620086141720861006118614172086100A207E
:1001720086141720861006158614172086100A206A
:100182000611861417208610861606168615061581
:0C0192008614172086100A206C14080048
:10019E00E128803083160313A400F428C030A40095
:1001AE00F4289430A400F428D430A400F42880302D
:1001BE00A400F428831603132408013A0319D02847
:1001CE002408023A0319D5282408033A0319D8281B
:1001DE002408043A0319DB28DE282503F00024083E
:1001EE00F0077008A4007008A8001A206C10EF0128
:1001FE006F0883162607840000080319102983123E
:10020E006F088316260784000008A7007820EF0ADF
:08021E00FF2883126C14080094
:1002260071208A110A128000840AED0A0319EE0A67
:08023600F003031D1329080069
:10023E00FA2183160313A001A101A201A301063026
:10024E009F0007309C00812001308316A8001A20E1
:10025E000C308316A8001A2001308316A40001303A
:10026E00A5004430A600CF2002308316A400013032
:10027E00A5002030A600CF208316A001A10180305A
:10028E002106F00080307002031D4F292730200216
:10029E00031875290330FB008A30FC005530FD0031
:1002AE00FD0B5729FC0B5729FB0B572900000000AB
:1002BE001830A8001A200330FB008A30FC0055309D
:1002CE00FD00FD0B6829FC0B6829FB0B682900005B
:1002DE0000008316A00A0319A10A4629A201A30150
:1002EE0080302306F00080307002031D80292730F5
:1002FE0022020318A6290330FB008A30FC00553079
:10030E00FD00FD0B8829FC0B8829FB0B88290000BA
:10031E0000001C30A8001A200330FB008A30FC00BD
:10032E005530FD00FD0B9929FC0B9929FB0B9929E2
:10033E00000000008316A20A0319A30A7729432995
:02034E00A729DD
:1003F400203084004C3083120313F000AD30ED0044
:080404000130EE001321080095
:10035A004D3464342E3449346D34723461346E341D
:10036A0020344E3461347A34693472342C34203473
:10037A0052342D3431343834303436343034313424
:10038A002C34203453343A34323430343134373420
:08039A002D34313438340034F5
:1003A20049346E3466346F3472346D34613474346B
:1003B20069346F346E3420342634203443346F343D
:1003C2006D346D3475346E3469346334613474342D
:1003D20069346F346E34203445346E346734693492
:1003E2006E3465346534723469346E346734003483
:02400E004A2F37
:00000001FF
