:020000000328D3
:10000600831603138801831288010930880006309D
:10001600FB001330FC00AD30FD00FD0B1028FC0B7F
:100026001028FB0B1028000000000C30880006305A
:10003600FB001330FC00AD30FD00FD0B2028FC0B4F
:100046002028FB0B20280000000006308800063020
:10005600FB001330FC00AD30FD00FD0B3028FC0B1F
:100066003028FB0B302800000000033088000630E3
:10007600FB001330FC00AD30FD00FD0B4028FC0BEF
:0E0086004028FB0B40280000000008284928F5
:02400E004A2F37
:00000001FF
