:020000001628C0
:0E000600831203132B088A002A0882000800C8
:1000140003208A110A128000840AAA0A0319AB0A6F
:08002400F003031D0A28080087
:10002C003F3083120313A0000630A1005B30A20006
:10003C004F30A3006630A4006D30A5007D30A600C3
:10004C000730A7007F30A8006F30A900AC01AD01CC
:10005C0083168601831286012C08203E840000083A
:10006C0086000B30FB002630FC005D30FD00FD0BE4
:10007C003D28FC0B3D28FB0B3D2800000000AC0A82
:10008C000319AD0A80302D06F00080307002031D7C
:10009C0051280A302C02031C5528AC01AD01322822
:0200AC005628D4
:02400E004A2F37
:00000001FF
