:020000002928AD
:1000060083120313F101F20180307206F000803092
:1000160023067002031D11282208710203182828DE
:10002600F301F40180307406F00080307002031D85
:100036001E281430730203182428F30A0319F40A3D
:0C0046001528F10A0319F20A0728080027
:100052008316031387018801803083128800870189
:100062000A30A2000030A300032040308800C330D1
:1000720087000A30A2000030A3000320203088004D
:10008200C33087000A30A2000030A30003201030E2
:100092008800FF3087000A30A2000030A30003204E
:1000A20008308800FF3087000A30A2000030A30029
:1000B200032004308800C33087000A30A2000030D9
:1000C200A300032002308800C33087000A30A20058
:1000D2000030A30003200130880087010A30A2000B
:0A00E2000030A30003202D2875282C
:02400E004A2F37
:00000001FF
